:020000040000FA
:100000000C9462000C948A000C948A000C948A0070
:100010000C948A000C948A000C948A000C948A0038
:100020000C948A000C948A000C948A000C948A0028
:100030000C948A000C948A000C948A000C948A0018
:100040000C9487060C948A000C9455060C942F0689
:100050000C948A000C948A000C948A000C948A00F8
:100060000C94D1060C948A000000000024002700A4
:100070002A0000000000250028002B0000000000DE
:1000800023002600290004040404040404040202DA
:100090000202020203030303030301020408102007
:1000A0004080010204081020010204081020000012
:1000B0000008000201000003040700000000000027
:1000C0000000EC0711241FBECFEFD8E0DEBFCDBF8C
:1000D00011E0A0E0B1E0EAECF9E102C005900D9278
:1000E000A635B107D9F722E0A6E5B1E001C01D921F
:1000F000A63BB207E1F710E0C2E6D0E004C02197CA
:10010000FE010E94DD0CC136D107C9F70E943408F8
:100110000C94E30C0C940000AF92BF92CF92DF924C
:10012000EF92FF920F931F93CF93DF936C017B01AC
:100130008B01040F151FEB015E01AE18BF08C0173D
:10014000D10759F06991D601ED91FC910190F081B0
:10015000E02DC6010995892B79F7C501DF91CF9173
:100160001F910F91FF90EF90DF90CF90BF90AF90D5
:100170000895FC01538D448D252F30E0842F90E0AD
:10018000821B930B541710F0CF9608950197089592
:10019000FC01918D828D981761F0A28DAE0FBF2F5B
:1001A000B11D5D968C91928D9F5F9F73928F90E0B1
:1001B00008958FEF9FEF0895FC01918D828D981720
:1001C00031F0828DE80FF11D858D90E008958FEF5D
:1001D0009FEF0895FC01918D228D892F90E0805C26
:1001E0009F4F821B91098F739927089581E092E0B8
:1001F0000E94EA0021E0892B09F420E0822F089573
:100200001F93CF93DF93D0E0C0E011E081E092E054
:100210000E94EA00892BB9F081E092E00E94C800B8
:100220008A3071F08C3791F39E012F5F3F4FCC5095
:10023000DE4F91E0803309F490E09883E901E6CF46
:100240001093F801E3CFDF91CF911F9108950E94A1
:10025000F60081110C9400010895FC01A48DA80FF3
:10026000B92FB11DA35ABF4F2C91848D90E00196F8
:100270008F739927848FA689B7892C93A089B18918
:100280008C91837080648C93938D848D981306C0B9
:100290000288F389E02D80818F7D80830895EF921D
:1002A000FF920F931F93CF93DF93EC0181E0888F30
:1002B0009B8D8C8D98131AC0E889F989808185FF00
:1002C00015C09FB7F894EE89FF896083E889F989A2
:1002D00080818370806480839FBF81E090E0DF91A4
:1002E000CF911F910F91FF90EF900895F62E0B8DF7
:1002F00010E00F5F1F4F0F731127E02E8C8D8E11B2
:100300000CC00FB607FCFACFE889F989808185FF18
:10031000F5CFCE010E942D01F1CFEB8DEC0FFD2F1B
:10032000F11DE35AFF4FF0829FB7F8940B8FEA89D3
:10033000FB8980818062CFCF682F81E092E00C94AE
:100340004F01CF93DF93EC01888D8823B9F0AA8900
:10035000BB89E889F9898C9185FD03C0808186FD80
:100360000DC00FB607FCF7CF8C9185FFF2CF8081CF
:1003700085FFEDCFCE010E942D01E9CFDF91CF9116
:100380000895833081F028F4813099F08230A9F00B
:1003900008958730A9F08830C9F08430B1F4809195
:1003A00080008F7D03C0809180008F7780938000D4
:1003B000089584B58F7784BD089584B58F7DFBCF74
:1003C0008091B0008F778093B00008958091B00045
:1003D0008F7DF9CFCF93DF93282F30E0F901E255DD
:1003E000FF4F8491F901E656FF4FD491F901EA5786
:1003F000FF4FC491CC23A1F081110E94C101EC2FC9
:10040000F0E0EE0FFF1FE458FF4FA591B491EC917F
:10041000ED2381E090E009F480E0DF91CF91089531
:1004200080E090E0FACF1F93CF93DF93282F30E046
:10043000F901E255FF4F8491F901E656FF4FD4913F
:10044000F901EA57FF4FC491CC23A9F0162F81116F
:100450000E94C101EC2FF0E0EE0FFF1FEE58FF4F9E
:10046000A591B4918FB7F894EC91111108C0D09573
:10047000DE23DC938FBFDF91CF911F910895DE2B98
:10048000F8CFCF93DF9390E0FC01E656FF4F249125
:100490008A579F4FFC0184918823D1F090E0880F08
:1004A000991FFC01E859FF4FA591B491FC01EE584A
:1004B000FF4FC591D49161110EC09FB7F8948C91F4
:1004C000E22FE0958E238C932881E223E8839FBF5F
:1004D000DF91CF9108958FB7F894EC91E22BEC93D4
:1004E0008FBFF6CF806480937C0080917A00806417
:1004F00080937A0080917A0086FDFCCF809178000D
:100500009091790008953FB7F8948091F00190910F
:10051000F101A091F201B091F30126B5A89B05C0AD
:100520002F3F19F00196A11DB11D3FBFBA2FA92F72
:10053000982F8827BC01CD01620F711D811D911D6F
:1005400042E0660F771F881F991F4A95D1F70895DB
:100550008F929F92AF92BF92CF92DF92EF92FF92D3
:100560004B015C010E9483026B017C010E948302AB
:100570006C197D098E099F09683E734081059105BC
:10058000A8F321E0821A9108A108B10888EEC80EEC
:1005900083E0D81EE11CF11C81149104A104B10474
:1005A00029F7FF90EF90DF90CF90BF90AF909F9092
:1005B0008F90089508951F93CF93DF93C1E0C09368
:1005C0005701882399F1D091B8001091BA00809119
:1005D000BC008A7B8093BC0060E082E10E94130231
:1005E00060E083E10E9413021092C101C093C00138
:1005F00010929B0161E082E10E94130261E083E1BD
:100600000E9413028091B9008E7F8093B90080917F
:10061000B9008D7F8093B90088E48093B80085E4A9
:100620008093BC001093BA00D093B800DF91CF91B3
:100630001F91089520917801260F3327331F21320F
:100640003105ECF42091C101FC0190E080E0243000
:1006500069F082E00895A09178012191AC01485A97
:100660005E4FA40FB52FB11D2C930196861798F3FA
:1006700080917801680F6093780180E0089581E0AF
:10068000089508958FEF9FEF08958FEF9FEF0895DE
:100690008091560190E09195819591090895CF92AE
:1006A000DF92EF92FF920F931F93CF93DF937C0122
:1006B000CB018A012091C701222389F0EB016B0154
:1006C000C40ED51ECC15DD0569F06991D701ED91F9
:1006D000FC910190F081E02DC7010995F3CF642FC3
:1006E0000E941A03C801DF91CF911F910F91FF90D3
:1006F000EF90DF90CF900895CF93DF931F92CDB707
:10070000DEB769832091C7012223F9F02091EA0125
:10071000203258F021E030E0FC013383228390E066
:1007200080E00F90DF91CF9108958091C801E82F6C
:10073000F0E0E753FE4F998190838F5F8093C8016B
:100740008093EA0181E090E0ECCF61E0CE01019678
:100750000E941A03F7CFCF92DF92EF92FF920F938E
:100760001F93CF93DF93FC01C48121E02093C70145
:10077000C093E9011092C8011092EA018385682BA9
:100780008EE992E00E947C03D091EA01D13208F018
:1007900092C00E9483026B017C018091C101811192
:1007A00065C082E08093C10181E08093C0018FEF3A
:1007B0008093BF011092BE01D093BD01A9ECB1E0BE
:1007C000EDE9F1E080E0D81385C010929C018091A2
:1007D0009C01CC0FC82BC0939C0180919B01813060
:1007E00009F07CC010929B010E9483026B017C0186
:1007F00080919C018093BB008091C3019091C401C2
:10080000A091C501B091C601892B8A2B8B2B99F041
:100810000E9483020091C3011091C4012091C5017F
:100820003091C6016C197D098E099F0906171707BB
:1008300028073907E0F18091BC0083FDD9CF85EC12
:100840008093BC000E9483026B017C018091C101F6
:10085000823009F445C08091BF018F3F61F18091E2
:10086000BF01803241F18091BF0125C08091C30159
:100870009091C401A091C501B091C601892B8A2B2A
:100880008B2B09F48ACF0E9483020091C30110913F
:10089000C4012091C5013091C6016C197D098E09F2
:1008A0009F09061717072807390708F076CF8091A8
:1008B000C2010E94DB021092C8011092EA0110925C
:1008C000C701DF91CF911F910F91FF90EF90DF90C3
:1008D000CF9008959D9191938F5F75CF85EEB0CFA6
:1008E0008091C3019091C401A091C501B091C6014E
:1008F000892B8A2B8B2B09F4A9CF0E9483020091AC
:10090000C3011091C4012091C5013091C6016C1939
:100910007D098E099F09061717072807390708F070
:1009200095CFC5CF90E080E00895FC0101900020B4
:10093000E9F73197AF01481B590BBC0181E092E008
:100940000C948C008F929F92AF92BF920F931F9343
:10095000CF93DF93CDB7DEB7A1970FB6F894DEBF84
:100960000FBECDBF19A2423008F44AE08E010F5DE0
:100970001F4F842E912CB12CA12CA50194010E9413
:10098000BB0CE62FB901CA01EA30F4F4E05DD801EE
:10099000EE938D01232B242B252B79F790E080E01B
:1009A000109719F0CD010E949504A1960FB6F89406
:1009B000DEBF0FBECDBFDF91CF911F910F91BF90D2
:1009C000AF909F908F900895E95CE1CF4F925F9236
:1009D0006F927F928F929F92AF92BF92CF92DF924F
:1009E000EF92FF920F931F93CF936B017C01742EB4
:1009F000AC019B010E94B60C882399F080E391E042
:100A0000CF911F910F91FF90EF90DF90CF90BF900B
:100A1000AF909F908F907F906F905F904F900C94CD
:100A2000950446015701E894B7F82FEF3FEF4FE7E1
:100A30005FE7C501B4010E94B60C81110DC02FEF14
:100A40003FEF4FE75FE7C501B4010E94EC0A1816BB
:100A50001CF484E391E0D4CF2FEF3FEF4FE75FE446
:100A6000C701B6010E94440C18161CF488E391E0FB
:100A7000C7CF2FEF3FEF4FE75FECC701B6010E94F2
:100A8000EC0A87FDF3CF20E030E0A901C701B601F1
:100A90000E94EC0A10E000E087FF08C08DE20E948F
:100AA0009C018C01F7FAF094F7F8F094C0E060E054
:100AB00070E080E09FE37C1641F020E030E040E20F
:100AC00051E40E94F10ACF5FF6CFA70196010E9480
:100AD000800A2B013C010E94630B4B015C014AE040
:100AE0000E94A2047C01E00EF11ECC23B1F1C501ED
:100AF000B4010E94920B9B01AC01C301B2010E94A0
:100B00007F0A4B015C018EE20E949C01E80EF91EF7
:100B1000C15018F120E030E040E251E4C501B401D9
:100B20000E94490C2B013C010E94630B4B01B12C2C
:100B3000A12C4AE0C501B4010E94A204E80EF91EEE
:100B4000C501B4010E94920B9B01AC01C301B2012B
:100B50000E947F0A4B015C01DBCFC701CF911F913F
:100B60000F91FF90EF90DF90CF90BF90AF909F904C
:100B70008F907F906F905F904F9008950F931F9389
:100B8000CF938C01C62F64600E94AB036C2F6B7FE8
:100B9000C8010E94AB0383EC90E00197F1F7CF917D
:100BA0001F910F9108950F931F93CF93DF938C01A3
:100BB000C62FD62FD07FD1606D2F0E94AB036D2F33
:100BC000C8010E94BE0580E1C89FE0011124C160F8
:100BD0006C2FC8010E94AB036C2FC8010E94BE0598
:100BE00081E090E0DF91CF911F910F91089585ED05
:100BF0008093BC008091C3019091C401A091C50174
:100C0000B091C6010796A11DB11D23E0B695A79529
:100C1000979587952A95D1F72091BC0024FD03C0B4
:100C20001092C10108954091C3015091C401609197
:100C3000C5017091C601452B462B472B69F30097E0
:100C4000A105B10541F025E32A95F1F700000197D0
:100C5000A109B109E1CF8091C2010C94DB021F927E
:100C60000F920FB60F9211242F933F934F935F93E0
:100C70006F937F938F939F93AF93BF93EF93FF9364
:100C800081E092E00E942D01FF91EF91BF91AF9121
:100C90009F918F917F916F915F914F913F912F9194
:100CA0000F900FBE0F901F9018951F920F920FB6C6
:100CB0000F9211242F938F939F93EF93FF93E091C3
:100CC0001102F09112028081E0911702F091180256
:100CD00082FD1BC0908180911A028F5F8F732091DB
:100CE0001B02821741F0E0911A02F0E0EF5FFD4F26
:100CF000958F80931A02FF91EF919F918F912F9181
:100D00000F900FBE0F901F9018958081F4CF1F9207
:100D10000F920FB60F9211242F933F938F939F93AF
:100D2000AF93BF938091EC019091ED01A091EE0102
:100D3000B091EF013091EB0123E0230F2D3758F5EF
:100D40000196A11DB11D2093EB018093EC019093BE
:100D5000ED01A093EE01B093EF018091F00190912D
:100D6000F101A091F201B091F3010196A11DB11D15
:100D70008093F0019093F101A093F201B093F301FD
:100D8000BF91AF919F918F913F912F910F900FBE87
:100D90000F901F90189526E8230F0296A11DB11DF4
:100DA000D2CF1F920F920FB60F9211242F933F9321
:100DB0004F935F936F937F938F939F93AF93BF9363
:100DC000EF93FF938091B900887F803609F44AC081
:100DD000F0F5883209F4A5C018F5803109F499C0FE
:100DE000B8F4882309F4F5C0883009F492C0FF9163
:100DF000EF91BF91AF919F918F917F916F915F9193
:100E00004F913F912F910F900FBE0F901F9018950B
:100E1000883109F486C0803251F78093BF0114C035
:100E2000803409F49BC040F48033B9F38833F9F679
:100E30008093BF0185ECAEC0803509F483C088354E
:100E400009F494C0883499F60E94F705D0CF883908
:100E500009F48AC038F5883729F050F4883611F043
:100E6000803729F683E08093C10110929A0155C022
:100E7000883809F479C0803919F0803809F0B7CF83
:100E800080919A01803208F06FC0E0919A0181E070
:100E90008E0F80939A018091BB00F0E0E658FE4FE0
:100EA00080833BC0803B39F0D0F4803A09F477C0AE
:100EB000883A09F09CCF84E08093C10110927901B7
:100EC00010927801F0E0E0E00995809178018111BD
:100ED0000FC081E0809378011092580109C0803CD6
:100EE00009F4A8CF883C09F4A5CF883B09F07FCF4F
:100EF000E091790181E08E0F80937901F0E0E85A6A
:100F0000FE4F80818093BB009091790180917801A0
:100F100029C080919C018093BB0085EC8093BC002C
:100F200066CF9091BE018091BD01981758F5E09170
:100F3000BE0181E08E0F8093BE01F0E0E356FE4FCC
:100F40008081E9CFE091BE0181E08E0F8093BE01E8
:100F50008091BB00F0E0E356FE4F80839091BE018C
:100F60008091BD019817C8F285E8D8CFE091BE0105
:100F700081E08E0F8093BE018091BB00F0E0E356CC
:100F8000FE4F80838091C00181115ECF81E080930C
:100F90009B0184EA8093BC001092C10128CF85ECAC
:100FA0008093BC001092C10180919A01803230F48C
:100FB000E0919A01F0E0E658FE4F108260919A01AC
:100FC00070E08AE791E0F0E0E0E0099510929A0184
:100FD0000ECF1092BF0138CFE1E0F2E0138212820F
:100FE00088EE93E0A0E0B0E084839583A683B78386
:100FF00024E031E03183208325EC30E035872487FD
:1010000024EC30E03787268720EC30E0318B208BD2
:1010100021EC30E0338B228B22EC30E0358B248BBB
:1010200026EC30E0378B268B118E128E138E148EA9
:10103000EEE9F2E01382128284839583A683B7835C
:1010400086E191E091838083EAEAF2E013821282E2
:1010500088E291E09183808380E2848380E18187CC
:1010600082E0828713860895CF93DF9300D000D06B
:101070001F92CDB7DEB7789484B5826084BD84B505
:10108000816084BD85B5826085BD85B5816085BD83
:1010900080916E00816080936E001092810080913B
:1010A00081008260809381008091810081608093C3
:1010B0008100809180008160809380008091B100E8
:1010C00084608093B1008091B00081608093B00013
:1010D00080917A00846080937A0080917A008260A7
:1010E00080937A0080917A00816080937A00809169
:1010F0007A00806880937A001092C100E09111021A
:10110000F091120282E08083E0910D02F0910E02D4
:101110001082E0910F02F09110028FEC8083109208
:101120001902E0911502F091160286E08083E091A9
:101130001302F0911402808180618083E091130298
:10114000F0911402808188608083E0911302F09115
:101150001402808180688083E0911302F091140270
:1011600080818F7D808361E083E00E9441023BE9C2
:10117000A32EB12C88248394912C5AE0352E198209
:101180001A821B821C821D8261E084E00E9441025F
:1011900060E084E00E94130264E170E080E090E08F
:1011A0000E94A80261E084E00E94130260E084E0F3
:1011B0000E944102C5010197F1F701E117E284E0C5
:1011C0000E94EA01892B09F073C001501109B9F797
:1011D00080E00E9472027C0181E00E9472028C0118
:1011E0006091FD017091FE018091FF0190910002DC
:1011F00041E00E94E6048CE70E949C016091F901A5
:101200007091FA018091FB019091FC0141E00E94F4
:10121000E6048CE70E949C01B701FF0C880B990B38
:1012200041E00E94A2048CE70E949C01B801110FCA
:10123000880B990B41E00E94A2048AE00E949C0165
:101240008091F801882331F18091F401882341F0E5
:1012500061E083E00E9413028CE391E00E94950418
:101260008091F501882321F082E491E00E949504A9
:101270008091F601882321F088E491E00E94950492
:101280008091F701882321F08FE491E00E9495047A
:101290001092F80164EF71E080E090E00E94A802F3
:1012A0000E94F600882309F46ACF0E94000167CFEC
:1012B00001E117E284E00E94EA01019721F4015064
:1012C0001109C1F785CF28E2E22EF12C17E000E0EA
:1012D00091E1C92E97E2D92E84E00E94EA01892B80
:1012E00029F441E0C41AD108B9F772CF0E948302F1
:1012F0002B013C0181E1C82E87E2D82E84E00E94B8
:10130000EA01019729F481E0C81AD108B9F760CF42
:101310000E9483026419750986099709693271056B
:101320008105910578F0E1E0F0E0EC0FFD1FE00FA2
:10133000F11D80819401012E01C0220F0A94EAF769
:10134000822B80831111D2C00F5F17E041E0E41AB5
:10135000F10809F0BDCF89816A8170E0839D600D3D
:10136000711D1124072E000C880B990B0E94940B01
:101370006B017C01C092F901D092FA01E092FB016D
:10138000F092FC018C819B81292F30E087FFB0C057
:1013900046EF4203B001439F700D11248F77681B05
:1013A0007109072E000C880B990B0E94940B609317
:1013B000FD017093FE018093FF019093000220E0F5
:1013C00030E84DE654E4C701B6010E94440C1816FB
:1013D00064F480E090E8ADE6B4E48093F901909382
:1013E000FA01A093FB01B093FC0120E030E048E457
:1013F00052E46091F9017091FA018091FB019091A2
:10140000FC010E94EC0A87FF0CC080E090E0A8E499
:10141000B2E48093F9019093FA01A093FB01B09399
:10142000FC0120E030E046E154E46091FD01709160
:10143000FE018091FF01909100020E94440C181659
:1014400064F480E090E0A6E1B4E48093FD01909321
:10145000FE01A093FF01B093000220E030E048E4D9
:1014600053EC6091FD017091FE018091FF0190911C
:1014700000020E94EC0A87FF0CC080E090E0A8E424
:10148000B3EC8093FD019093FE01A093FF01B09314
:10149000000220E030E040E251E46091FD017091F3
:1014A000FE018091FF01909100020E94F10A609379
:1014B000FD017093FE018093FF019093000220E0F4
:1014C00030E040E251E46091F9017091FA018091BD
:1014D000FB019091FC010E94F10A6093F901709365
:1014E000FA018093FB019093FC0172CE11502ECF34
:1014F000682F70E0939D600D711D112452CF5058DC
:10150000BB27AA270E94970A0C940A0C0E94FC0B86
:1015100038F00E94030C20F039F49F3F19F426F4B0
:101520000C94F90B0EF4E095E7FB0C94F30BE92F08
:101530000E941B0C58F3BA176207730784079507BC
:1015400020F079F4A6F50C943D0C0EF4E0950B2EEA
:10155000BA2FA02D0B01B90190010C01CA01A00105
:101560001124FF27591B99F0593F50F4503E68F160
:101570001A16F040A22F232F342F4427585FF3CFA1
:10158000469537952795A795F0405395C9F77EF472
:101590001F16BA0B620B730B840BBAF09150A1F0BB
:1015A000FF0FBB1F661F771F881FC2F70EC0BA0F41
:1015B000621F731F841F48F4879577956795B795C9
:1015C000F7959E3F08F0B0CF9395880F08F09927C4
:1015D000EE0F9795879508950E94CF0B08F481E050
:1015E00008950E94050B0C940A0C0E94030C58F0FD
:1015F0000E94FC0B40F029F45F3F29F00C94F30BA0
:1016000051110C943E0C0C94F90B0E941B0C68F3C6
:101610009923B1F3552391F3951B550BBB27AA27AB
:1016200062177307840738F09F5F5F4F220F331FE5
:10163000441FAA1FA9F335D00E2E3AF0E0E832D0AD
:1016400091505040E695001CCAF72BD0FE2F29D0B0
:10165000660F771F881FBB1F261737074807AB0782
:10166000B0E809F0BB0B802DBF01FF2793585F4FF7
:101670003AF09E3F510578F00C94F30B0C943E0C1D
:101680005F3FE4F3983ED4F3869577956795B795D9
:10169000F7959F5FC9F7880F911D9695879597F9E4
:1016A0000895E1E0660F771F881FBB1F621773075D
:1016B0008407BA0720F0621B730B840BBA0BEE1F72
:1016C00088F7E09508950E94230C88F09F5798F0C2
:1016D000B92F9927B751B0F0E1F0660F771F881F37
:1016E000991F1AF0BA95C9F714C0B13091F00E9451
:1016F0003D0CB1E008950C943D0C672F782F88279E
:10170000B85F39F0B93FCCF3869577956795B39577
:10171000D9F73EF490958095709561957F4F8F4FE6
:101720009F4F0895E89409C097FB3EF490958095EB
:10173000709561957F4F8F4F9F4F9923A9F0F92F97
:1017400096E9BB279395F695879577956795B79515
:10175000F111F8CFFAF4BB0F11F460FF1BC06F5FFB
:101760007F4F8F4F9F4F16C0882311F096E911C00D
:10177000772321F09EE8872F762F05C0662371F02E
:1017800096E8862F70E060E02AF09A95660F771F42
:10179000881FDAF7880F9695879597F90895990F1E
:1017A0000008550FAA0BE0E8FEEF16161706E8072B
:1017B000F907C0F012161306E407F50798F0621B4C
:1017C000730B840B950B39F40A2661F0232B242B21
:1017D000252B21F408950A2609F4A140A6958FEF40
:1017E000811D811D089597F99F6780E870E060E092
:1017F00008959FEF80EC089500240A9416161706AA
:1018000018060906089500240A94121613061406F1
:1018100005060895092E0394000C11F4882352F054
:10182000BB0F40F4BF2B11F460FF04C06F5F7F4F0C
:101830008F4F9F4F089557FD9058440F551F59F0F3
:101840005F3F71F04795880F97FB991F61F09F3FAD
:1018500079F087950895121613061406551FF2CFD6
:101860004695F1DF08C0161617061806991FF1CF26
:1018700086957105610508940895E894BB2766274D
:101880007727CB0197F908950E94CF0B08F48FEFCB
:1018900008950E945C0C0C940A0C0E94FC0B38F01A
:1018A0000E94030C20F0952311F00C94F30B0C9480
:1018B000F90B11240C943E0C0E941B0C70F3959FA5
:1018C000C1F3950F50E0551F629FF001729FBB2737
:1018D000F00DB11D639FAA27F00DB11DAA1F649FD3
:1018E0006627B00DA11D661F829F2227B00DA11D86
:1018F000621F739FB00DA11D621F839FA00D611D0C
:10190000221F749F3327A00D611D231F849F600D2C
:10191000211D822F762F6A2F11249F5750409AF055
:10192000F1F088234AF0EE0FFF1FBB1F661F771FE1
:10193000881F91505040A9F79E3F510580F00C94AC
:10194000F30B0C943E0C5F3FE4F3983ED4F3869582
:1019500077956795B795F795E7959F5FC1F7FE2B4C
:10196000880F911D9695879597F908950E94CF0B42
:10197000880B990B0895A1E21A2EAA1BBB1BFD012F
:101980000DC0AA1FBB1FEE1FFF1FA217B307E4075E
:10199000F50720F0A21BB30BE40BF50B661F771FB6
:1019A000881F991F1A9469F7609570958095909596
:1019B0009B01AC01BD01CF010895EE0FFF1F059003
:1019C000F491E02D0994F894FFCF000000004F013E
:1019D0008C00B900A101EA00C800DC000000000092
:1019E0007C034F0392044103480345034203000074
:1019F0000000D3058C009204DA026E616E00696EFD
:101A000066006F766600686561740A0068756D69C6
:101A10000A006C696768740A0070726573730A0063
:107E0000112484B714BE81FFF0D085E080938100F7
:107E100082E08093C00088E18093C10086E0809377
:107E2000C20080E18093C4008EE0C9D0259A86E02C
:107E300020E33CEF91E0309385002093840096BBD3
:107E4000B09BFECF1D9AA8958150A9F7CC24DD24C4
:107E500088248394B5E0AB2EA1E19A2EF3E0BF2EE7
:107E6000A2D0813461F49FD0082FAFD0023811F036
:107E7000013811F484E001C083E08DD089C08234E0
:107E800011F484E103C0853419F485E0A6D080C0E4
:107E9000853579F488D0E82EFF2485D0082F10E0AE
:107EA000102F00270E291F29000F111F8ED06801E7
:107EB0006FC0863521F484E090D080E0DECF843638
:107EC00009F040C070D06FD0082F6DD080E0C81688
:107ED00080E7D80618F4F601B7BEE895C0E0D1E017
:107EE00062D089930C17E1F7F0E0CF16F0E7DF06D8
:107EF00018F0F601B7BEE89568D007B600FCFDCFD4
:107F0000A601A0E0B1E02C9130E011968C91119780
:107F100090E0982F8827822B932B1296FA010C0160
:107F200087BEE89511244E5F5F4FF1E0A038BF0790
:107F300051F7F601A7BEE89507B600FCFDCF97BE46
:107F4000E89526C08437B1F42ED02DD0F82E2BD052
:107F50003CD0F601EF2C8F010F5F1F4F84911BD097
:107F6000EA94F801C1F70894C11CD11CFA94CF0C13
:107F7000D11C0EC0853739F428D08EE10CD085E9AC
:107F80000AD08FE07ACF813511F488E018D01DD067
:107F900080E101D065CF982F8091C00085FFFCCF94
:107FA0009093C60008958091C00087FFFCCF809118
:107FB000C00084FD01C0A8958091C6000895E0E648
:107FC000F0E098E1908380830895EDDF803219F02E
:107FD00088E0F5DFFFCF84E1DECF1F93182FE3DFCA
:107FE0001150E9F7F2DF1F91089580E0E8DFEE27F6
:047FF000FF270994CA
:027FFE00040479
:00000001FF
